{
  "_format": "hh-sol-artifact-1",
  "contractName": "NFTMarket",
  "sourceName": "contracts/NFTMarket.sol",
  "abi": [
    {
      "inputs": [],
      "stateMutability": "nonpayable",
      "type": "constructor"
    },
    {
      "anonymous": false,
      "inputs": [
        {
          "indexed": true,
          "internalType": "uint256",
          "name": "itemId",
          "type": "uint256"
        },
        {
          "indexed": true,
          "internalType": "uint256",
          "name": "tokenId",
          "type": "uint256"
        },
        {
          "indexed": true,
          "internalType": "address",
          "name": "nftContract",
          "type": "address"
        },
        {
          "indexed": false,
          "internalType": "address",
          "name": "seller",
          "type": "address"
        },
        {
          "indexed": false,
          "internalType": "address",
          "name": "owner",
          "type": "address"
        },
        {
          "indexed": false,
          "internalType": "uint256",
          "name": "price",
          "type": "uint256"
        },
        {
          "indexed": false,
          "internalType": "bool",
          "name": "sold",
          "type": "bool"
        }
      ],
      "name": "MarketItemCreated",
      "type": "event"
    },
    {
      "inputs": [
        {
          "internalType": "address",
          "name": "nftContract",
          "type": "address"
        },
        {
          "internalType": "uint256",
          "name": "tokenId",
          "type": "uint256"
        },
        {
          "internalType": "uint256",
          "name": "price",
          "type": "uint256"
        }
      ],
      "name": "createMarketItem",
      "outputs": [],
      "stateMutability": "payable",
      "type": "function"
    },
    {
      "inputs": [
        {
          "internalType": "address",
          "name": "nftContract",
          "type": "address"
        },
        {
          "internalType": "uint256",
          "name": "itemId",
          "type": "uint256"
        }
      ],
      "name": "createMarketSale",
      "outputs": [],
      "stateMutability": "payable",
      "type": "function"
    },
    {
      "inputs": [],
      "name": "fetchAllNFTs",
      "outputs": [
        {
          "components": [
            {
              "internalType": "uint256",
              "name": "itemId",
              "type": "uint256"
            },
            {
              "internalType": "uint256",
              "name": "tokenId",
              "type": "uint256"
            },
            {
              "internalType": "address",
              "name": "nftContract",
              "type": "address"
            },
            {
              "internalType": "address payable",
              "name": "seller",
              "type": "address"
            },
            {
              "internalType": "address payable",
              "name": "owner",
              "type": "address"
            },
            {
              "internalType": "uint256",
              "name": "price",
              "type": "uint256"
            },
            {
              "internalType": "bool",
              "name": "sold",
              "type": "bool"
            }
          ],
          "internalType": "struct NFTMarket.MarketItem[]",
          "name": "",
          "type": "tuple[]"
        }
      ],
      "stateMutability": "view",
      "type": "function"
    },
    {
      "inputs": [],
      "name": "fetchMyPurchasedNFTs",
      "outputs": [
        {
          "components": [
            {
              "internalType": "uint256",
              "name": "itemId",
              "type": "uint256"
            },
            {
              "internalType": "uint256",
              "name": "tokenId",
              "type": "uint256"
            },
            {
              "internalType": "address",
              "name": "nftContract",
              "type": "address"
            },
            {
              "internalType": "address payable",
              "name": "seller",
              "type": "address"
            },
            {
              "internalType": "address payable",
              "name": "owner",
              "type": "address"
            },
            {
              "internalType": "uint256",
              "name": "price",
              "type": "uint256"
            },
            {
              "internalType": "bool",
              "name": "sold",
              "type": "bool"
            }
          ],
          "internalType": "struct NFTMarket.MarketItem[]",
          "name": "",
          "type": "tuple[]"
        }
      ],
      "stateMutability": "view",
      "type": "function"
    },
    {
      "inputs": [],
      "name": "fetchNFTsCreated",
      "outputs": [
        {
          "components": [
            {
              "internalType": "uint256",
              "name": "itemId",
              "type": "uint256"
            },
            {
              "internalType": "uint256",
              "name": "tokenId",
              "type": "uint256"
            },
            {
              "internalType": "address",
              "name": "nftContract",
              "type": "address"
            },
            {
              "internalType": "address payable",
              "name": "seller",
              "type": "address"
            },
            {
              "internalType": "address payable",
              "name": "owner",
              "type": "address"
            },
            {
              "internalType": "uint256",
              "name": "price",
              "type": "uint256"
            },
            {
              "internalType": "bool",
              "name": "sold",
              "type": "bool"
            }
          ],
          "internalType": "struct NFTMarket.MarketItem[]",
          "name": "",
          "type": "tuple[]"
        }
      ],
      "stateMutability": "view",
      "type": "function"
    },
    {
      "inputs": [],
      "name": "getListingPrice",
      "outputs": [
        {
          "internalType": "uint256",
          "name": "",
          "type": "uint256"
        }
      ],
      "stateMutability": "view",
      "type": "function"
    }
  ],
  "bytecode": "0x60806040526658d15e1762800060035534801561001b57600080fd5b50600160008190555033600460006101000a81548173ffffffffffffffffffffffffffffffffffffffff021916908373ffffffffffffffffffffffffffffffffffffffff16021790555061192e806100746000396000f3fe6080604052600436106100555760003560e01c806312e855851461005a5780633bec7b84146100855780633f0e317b146100b057806358eb2df5146100db5780635cc11b34146100f7578063c23b139e14610122575b600080fd5b34801561006657600080fd5b5061006f61013e565b60405161007c9190611619565b60405180910390f35b34801561009157600080fd5b5061009a610148565b6040516100a79190611577565b60405180910390f35b3480156100bc57600080fd5b506100c56104e0565b6040516100d29190611577565b60405180910390f35b6100f560048036038101906100f091906112b3565b6107ec565b005b34801561010357600080fd5b5061010c610b51565b6040516101199190611577565b60405180910390f35b61013c60048036038101906101379190611277565b610ee9565b005b6000600354905090565b6060600061015660016111a8565b905060008060005b838110156101fe573373ffffffffffffffffffffffffffffffffffffffff166005600060018461018e919061167e565b815260200190815260200160002060040160009054906101000a900473ffffffffffffffffffffffffffffffffffffffff1673ffffffffffffffffffffffffffffffffffffffff1614156101eb5782806101e790611762565b9350505b80806101f690611762565b91505061015e565b5060008267ffffffffffffffff811115610241577f4e487b7100000000000000000000000000000000000000000000000000000000600052604160045260246000fd5b60405190808252806020026020018201604052801561027a57816020015b6102676111cc565b81526020019060019003908161025f5790505b50905060005b848110156104d5573373ffffffffffffffffffffffffffffffffffffffff16600560006001846102b0919061167e565b815260200190815260200160002060040160009054906101000a900473ffffffffffffffffffffffffffffffffffffffff1673ffffffffffffffffffffffffffffffffffffffff1614156104c257600060018261030d919061167e565b90506000600560008381526020019081526020016000209050806040518060e001604052908160008201548152602001600182015481526020016002820160009054906101000a900473ffffffffffffffffffffffffffffffffffffffff1673ffffffffffffffffffffffffffffffffffffffff1673ffffffffffffffffffffffffffffffffffffffff1681526020016003820160009054906101000a900473ffffffffffffffffffffffffffffffffffffffff1673ffffffffffffffffffffffffffffffffffffffff1673ffffffffffffffffffffffffffffffffffffffff1681526020016004820160009054906101000a900473ffffffffffffffffffffffffffffffffffffffff1673ffffffffffffffffffffffffffffffffffffffff1673ffffffffffffffffffffffffffffffffffffffff168152602001600582015481526020016006820160009054906101000a900460ff1615151515815250508486815181106104a6577f4e487b7100000000000000000000000000000000000000000000000000000000600052603260045260246000fd5b602002602001018190525084806104bc90611762565b95505050505b80806104cd90611762565b915050610280565b508094505050505090565b606060006104ee60016111a8565b905060006104fc60026111a8565b8261050791906116d4565b90506000808267ffffffffffffffff81111561054c577f4e487b7100000000000000000000000000000000000000000000000000000000600052604160045260246000fd5b60405190808252806020026020018201604052801561058557816020015b6105726111cc565b81526020019060019003908161056a5790505b50905060005b848110156107e157600073ffffffffffffffffffffffffffffffffffffffff16600560006001846105bc919061167e565b815260200190815260200160002060040160009054906101000a900473ffffffffffffffffffffffffffffffffffffffff1673ffffffffffffffffffffffffffffffffffffffff1614156107ce576000600182610619919061167e565b90506000600560008381526020019081526020016000209050806040518060e001604052908160008201548152602001600182015481526020016002820160009054906101000a900473ffffffffffffffffffffffffffffffffffffffff1673ffffffffffffffffffffffffffffffffffffffff1673ffffffffffffffffffffffffffffffffffffffff1681526020016003820160009054906101000a900473ffffffffffffffffffffffffffffffffffffffff1673ffffffffffffffffffffffffffffffffffffffff1673ffffffffffffffffffffffffffffffffffffffff1681526020016004820160009054906101000a900473ffffffffffffffffffffffffffffffffffffffff1673ffffffffffffffffffffffffffffffffffffffff1673ffffffffffffffffffffffffffffffffffffffff168152602001600582015481526020016006820160009054906101000a900460ff1615151515815250508486815181106107b2577f4e487b7100000000000000000000000000000000000000000000000000000000600052603260045260246000fd5b602002602001018190525084806107c890611762565b95505050505b80806107d990611762565b91505061058b565b508094505050505090565b60026000541415610832576040517f08c379a0000000000000000000000000000000000000000000000000000000008152600401610829906115d9565b60405180910390fd5b60026000819055506000811161087d576040517f08c379a000000000000000000000000000000000000000000000000000000000815260040161087490611599565b60405180910390fd5b6003543410156108c2576040517f08c379a00000000000000000000000000000000000000000000000000000000081526004016108b9906115b9565b60405180910390fd5b6108cc60016111b6565b60006108d860016111a8565b90506040518060e001604052808281526020018481526020018573ffffffffffffffffffffffffffffffffffffffff1681526020013373ffffffffffffffffffffffffffffffffffffffff168152602001600073ffffffffffffffffffffffffffffffffffffffff1681526020018381526020016000151581525060056000838152602001908152602001600020600082015181600001556020820151816001015560408201518160020160006101000a81548173ffffffffffffffffffffffffffffffffffffffff021916908373ffffffffffffffffffffffffffffffffffffffff16021790555060608201518160030160006101000a81548173ffffffffffffffffffffffffffffffffffffffff021916908373ffffffffffffffffffffffffffffffffffffffff16021790555060808201518160040160006101000a81548173ffffffffffffffffffffffffffffffffffffffff021916908373ffffffffffffffffffffffffffffffffffffffff16021790555060a0820151816005015560c08201518160060160006101000a81548160ff0219169083151502179055509050508373ffffffffffffffffffffffffffffffffffffffff166323b872dd3330866040518463ffffffff1660e01b8152600401610ab9939291906114fb565b600060405180830381600087803b158015610ad357600080fd5b505af1158015610ae7573d6000803e3d6000fd5b505050508373ffffffffffffffffffffffffffffffffffffffff1683827f559a3a6d05e6c668564a802e14c9315ffcce4efdb13bf30a43c6790b957c36be336000876000604051610b3b9493929190611532565b60405180910390a4506001600081905550505050565b60606000610b5f60016111a8565b905060008060005b83811015610c07573373ffffffffffffffffffffffffffffffffffffffff1660056000600184610b97919061167e565b815260200190815260200160002060030160009054906101000a900473ffffffffffffffffffffffffffffffffffffffff1673ffffffffffffffffffffffffffffffffffffffff161415610bf4578280610bf090611762565b9350505b8080610bff90611762565b915050610b67565b5060008267ffffffffffffffff811115610c4a577f4e487b7100000000000000000000000000000000000000000000000000000000600052604160045260246000fd5b604051908082528060200260200182016040528015610c8357816020015b610c706111cc565b815260200190600190039081610c685790505b50905060005b84811015610ede573373ffffffffffffffffffffffffffffffffffffffff1660056000600184610cb9919061167e565b815260200190815260200160002060030160009054906101000a900473ffffffffffffffffffffffffffffffffffffffff1673ffffffffffffffffffffffffffffffffffffffff161415610ecb576000600182610d16919061167e565b90506000600560008381526020019081526020016000209050806040518060e001604052908160008201548152602001600182015481526020016002820160009054906101000a900473ffffffffffffffffffffffffffffffffffffffff1673ffffffffffffffffffffffffffffffffffffffff1673ffffffffffffffffffffffffffffffffffffffff1681526020016003820160009054906101000a900473ffffffffffffffffffffffffffffffffffffffff1673ffffffffffffffffffffffffffffffffffffffff1673ffffffffffffffffffffffffffffffffffffffff1681526020016004820160009054906101000a900473ffffffffffffffffffffffffffffffffffffffff1673ffffffffffffffffffffffffffffffffffffffff1673ffffffffffffffffffffffffffffffffffffffff168152602001600582015481526020016006820160009054906101000a900460ff161515151581525050848681518110610eaf577f4e487b7100000000000000000000000000000000000000000000000000000000600052603260045260246000fd5b60200260200101819052508480610ec590611762565b95505050505b8080610ed690611762565b915050610c89565b508094505050505090565b60026000541415610f2f576040517f08c379a0000000000000000000000000000000000000000000000000000000008152600401610f26906115d9565b60405180910390fd5b600260008190555060006005600083815260200190815260200160002060010154905060006005600084815260200190815260200160002060050154905060006005600085815260200190815260200160002060030160009054906101000a900473ffffffffffffffffffffffffffffffffffffffff169050813414610fea576040517f08c379a0000000000000000000000000000000000000000000000000000000008152600401610fe1906115f9565b60405180910390fd5b8073ffffffffffffffffffffffffffffffffffffffff166108fc349081150290604051600060405180830381858888f19350505050158015611030573d6000803e3d6000fd5b508473ffffffffffffffffffffffffffffffffffffffff166323b872dd3033866040518463ffffffff1660e01b815260040161106e939291906114fb565b600060405180830381600087803b15801561108857600080fd5b505af115801561109c573d6000803e3d6000fd5b50505050336005600086815260200190815260200160002060040160006101000a81548173ffffffffffffffffffffffffffffffffffffffff021916908373ffffffffffffffffffffffffffffffffffffffff16021790555060016005600086815260200190815260200160002060060160006101000a81548160ff02191690831515021790555061112e60026111b6565b600460009054906101000a900473ffffffffffffffffffffffffffffffffffffffff1673ffffffffffffffffffffffffffffffffffffffff166108fc6003549081150290604051600060405180830381858888f19350505050158015611198573d6000803e3d6000fd5b5050505060016000819055505050565b600081600001549050919050565b6001816000016000828254019250508190555050565b6040518060e001604052806000815260200160008152602001600073ffffffffffffffffffffffffffffffffffffffff168152602001600073ffffffffffffffffffffffffffffffffffffffff168152602001600073ffffffffffffffffffffffffffffffffffffffff168152602001600081526020016000151581525090565b60008135905061125c816118ca565b92915050565b600081359050611271816118e1565b92915050565b6000806040838503121561128a57600080fd5b60006112988582860161124d565b92505060206112a985828601611262565b9150509250929050565b6000806000606084860312156112c857600080fd5b60006112d68682870161124d565b93505060206112e786828701611262565b92505060406112f886828701611262565b9150509250925092565b600061130e838361144f565b60e08301905092915050565b6113238161171a565b82525050565b61133281611708565b82525050565b61134181611708565b82525050565b600061135282611644565b61135c818561165c565b935061136783611634565b8060005b8381101561139857815161137f8882611302565b975061138a8361164f565b92505060018101905061136b565b5085935050505092915050565b6113ae8161172c565b82525050565b6113bd8161172c565b82525050565b60006113d0601b8361166d565b91506113db826117da565b602082019050919050565b60006113f360248361166d565b91506113fe82611803565b604082019050919050565b6000611416601f8361166d565b915061142182611852565b602082019050919050565b600061143960378361166d565b91506114448261187b565b604082019050919050565b60e08201600082015161146560008501826114dd565b50602082015161147860208501826114dd565b50604082015161148b6040850182611329565b50606082015161149e606085018261131a565b5060808201516114b1608085018261131a565b5060a08201516114c460a08501826114dd565b5060c08201516114d760c08501826113a5565b50505050565b6114e681611758565b82525050565b6114f581611758565b82525050565b60006060820190506115106000830186611338565b61151d6020830185611338565b61152a60408301846114ec565b949350505050565b60006080820190506115476000830187611338565b6115546020830186611338565b61156160408301856114ec565b61156e60608301846113b4565b95945050505050565b600060208201905081810360008301526115918184611347565b905092915050565b600060208201905081810360008301526115b2816113c3565b9050919050565b600060208201905081810360008301526115d2816113e6565b9050919050565b600060208201905081810360008301526115f281611409565b9050919050565b600060208201905081810360008301526116128161142c565b9050919050565b600060208201905061162e60008301846114ec565b92915050565b6000819050602082019050919050565b600081519050919050565b6000602082019050919050565b600082825260208201905092915050565b600082825260208201905092915050565b600061168982611758565b915061169483611758565b9250827fffffffffffffffffffffffffffffffffffffffffffffffffffffffffffffffff038211156116c9576116c86117ab565b5b828201905092915050565b60006116df82611758565b91506116ea83611758565b9250828210156116fd576116fc6117ab565b5b828203905092915050565b600061171382611738565b9050919050565b600061172582611738565b9050919050565b60008115159050919050565b600073ffffffffffffffffffffffffffffffffffffffff82169050919050565b6000819050919050565b600061176d82611758565b91507fffffffffffffffffffffffffffffffffffffffffffffffffffffffffffffffff8214156117a05761179f6117ab565b5b600182019050919050565b7f4e487b7100000000000000000000000000000000000000000000000000000000600052601160045260246000fd5b7f5072696365206d7573742062652061746c656173742031207765690000000000600082015250565b7f5072696365206d75737420626520657175616c20746f204c697374696e67205060008201527f7269636500000000000000000000000000000000000000000000000000000000602082015250565b7f5265656e7472616e637947756172643a207265656e7472616e742063616c6c00600082015250565b7f506c65617365207375626d6974207468652061736b696e67207072696365207460008201527f6f20636f6d706c65746520746865207075726368617365000000000000000000602082015250565b6118d381611708565b81146118de57600080fd5b50565b6118ea81611758565b81146118f557600080fd5b5056fea264697066735822122009abd1f929e5963b5139ded9d4c43609ecb9d179d2bda2c8ea4418413284267764736f6c63430008040033",
  "linkReferences": {},
  "deployedLinkReferences": {}
}